:100000000C94AA000C94C7000C94C7000C94C70071
:100010000C94C7000C94C7000C94C7000C94C70044
:100020000C94C7000C94C7000C94C7000C94C70034
:100030000C94C7000C94C7000C94C7000C94C70024
:100040000C94C7000C94C7000C94C7000C94C70014
:100050000C94C700E300F500070119012B013D01D5
:100060004F016101730186019801AA01BC01CE0113
:10007000E001F2010402160228023A024C025E027A
:100080007002820287029902AB02BD02CF02E10236
:10009000F3020503CD03D503DD03E503ED03F5030B
:1000A000FD0305040D0415041D0425042D04350469
:1000B0003D0445044D0455045D0465046D04750458
:1000C0007D0485048D0495049D04A504AD04B50448
:1000D000BD04C50405050B05110517051D05230500
:1000E00029052F0535053B05410547054D055305F8
:1000F00059055F0565056B05710577057D05830568
:1001000089058F0595059B05A105A705AD05B305D7
:10011000B905BF05FD05030609060F0615061B06F2
:10012000210627062C06320638063E0644064A06F5
:10013000500656065B06610667066D06730679066D
:100140007F0685068A06900696069C06A206A806E5
:10015000AE06B40611241FBECFE5D8E0DEBFCDBF8A
:1001600010E0A0E6B0E0EAE1FFE002C005900D92E9
:10017000A037B107D9F720E0A0E7B0E001C01D9299
:10018000A137B207E1F70E9421070C948B070C946A
:100190000000E0916000E03208F049C22091610067
:1001A000223008F046C230916200323008F043C27B
:1001B0008E2F90E08032910508F03FC2FC01E65D91
:1001C000FF4F0C948507213019F4D09A81E00895EF
:1001D000211135C2313021F4D098D89A81E00895A8
:1001E00031112FC2D09881E00895213019F4D19AAD
:1001F00081E00895211127C2313021F4D198D99A94
:1002000081E00895311121C2D19881E00895213013
:1002100019F4D29A81E00895211119C2313021F4E4
:10022000D298DA9A81E00895311113C2D29881E010
:100230000895213019F4D39A81E0089521110BC259
:10024000313021F4D398DB9A81E00895311105C251
:10025000D39881E00895213019F4D49A81E008956B
:100260002111FDC1313021F4D498DC9A81E0089548
:100270003111F7C1D49881E00895213019F4D59A4D
:1002800081E008952111EFC1313021F4D598DD9A34
:1002900081E008953111E9C1D59881E008952130B8
:1002A00019F4D69A81E008952111E1C1313021F489
:1002B000D698DE9A81E008953111DBC1D69881E0AD
:1002C0000895213019F4D79A81E008952111D3C1FE
:1002D000313021F4D798DF9A81E008953111CDC1F2
:1002E000D79881E00895213021F487B387BB81E05E
:1002F00008952111C4C1313021F4B898C09A81E029
:1003000008953111BEC1B89881E00895213019F4E3
:10031000B99A81E008952111B6C1313021F4B9981C
:10032000C19A81E008953111B0C1B99881E0089572
:10033000213019F4BA9A81E008952111A8C1313011
:1003400021F4BA98C29A81E008953111A2C1BA98F5
:1003500081E00895213019F4BB9A81E008952111BC
:100360009AC1313021F4BB98C39A81E008953111CC
:1003700094C1BB9881E00895213019F4BC9A81E0C2
:10038000089521118CC1313021F4BC98C49A81E0C8
:100390000895311186C1BC9881E00895213019F487
:1003A000BD9A81E0089521117EC1313021F4BD98BC
:1003B000C59A81E00895311178C1BD9881E0089512
:1003C000213019F4BE9A81E00895211170C13130B5
:1003D00021F4BE98C69A81E0089531116AC1BE9891
:1003E00081E00895213019F4BF9A81E00895211128
:1003F00062C1313021F4BF98C79A81E0089531116C
:100400005CC1BF9881E00895213019F4A09A81E081
:100410000895211154C1313021F4A098A89A81E0A7
:10042000089531114EC1A09881E00895213019F44A
:10043000A19A81E00895211146C1313021F4A1989B
:10044000A99A81E00895311140C1A19881E00895F1
:10045000213019F4A29A81E00895211138C1313078
:1004600021F4A298AA9A81E00895311132C1A2988C
:1004700081E00895213019F4A39A81E008952111B3
:100480002AC1313021F4A398AB9A81E0089531114B
:1004900024C1A39881E00895213019F4A49A81E041
:1004A000089521111CC1313021F4A498AC9A81E047
:1004B0000895311116C1A49881E00895213019F4EE
:1004C000A59A81E0089521110EC1313021F4A5983B
:1004D000AD9A81E00895311108C1A59881E0089591
:1004E000213019F4A69A81E00895211100C131301C
:1004F00021F4A698AE9A81E008953111FAC0A69829
:1005000081E008952111F7C0A79A81E00895213074
:1005100019F4889A81E008952111EFC0313021F457
:100520008898909A81E008953111E9C0889881E017
:100530000895213019F4899A81E008952111E1C0CC
:10054000313021F48998919A81E008953111DBC00E
:10055000899881E00895213019F48A9A81E00895FC
:100560002111D3C0313021F48A98929A81E0089504
:100570003111CDC08A9881E00895213019F48B9A09
:1005800081E008952111C5C0313021F48B98939AF0
:1005900081E008953111BFC08B9881E0089521302A
:1005A00019F48C9A81E008952111B7C0313021F4FB
:1005B0008C98949A81E008953111B1C08C9881E0B3
:1005C0000895213019F48D9A81E008952111A9C070
:1005D000313021F48D98959A81E008953111A3C0AE
:1005E0008D9881E00895213019F48E9A81E0089564
:1005F00021119BC0313021F48E98969A81E00895A4
:10060000311195C08E9881E00895213019F48F9AA8
:1006100081E0089521118DC0313021F48F98979A8F
:1006200081E00895311187C08F9881E0089580E0BE
:10063000089580E0089580E0089581E0089581E0C4
:10064000089581E0089581E0089581E0089581E0B2
:10065000089581E0089581E0089581E0089581E0A2
:10066000089581E0089581E0089581E0089581E092
:10067000089581E0089581E0089581E0089581E082
:10068000089581E0089581E0089581E0089581E072
:10069000089581E0089581E0089581E0089581E062
:1006A000089581E0089581E0089581E0089581E052
:1006B000089581E0089581E0089581E0089581E042
:1006C000089581E0089581E0089581E0089581E032
:1006D000089581E0089581E0089581E0089581E022
:1006E000089581E0089581E0089581E0089581E012
:1006F000089581E0089581E0089581E0089581E002
:10070000089581E0089581E0089581E0089581E0F1
:10071000089581E0089581E0089581E0089581E0E1
:10072000089581E0089581E0089581E0089581E0D1
:10073000089581E0089581E0089590E0FC01EE0FB6
:10074000FF1FE80FF91FE05AFF4FE081E03208F089
:1007500024C1DC01AA0FBB1FA80FB91FA05ABF4FAD
:1007600011962C91223008F01AC1DC01AA0FBB1F90
:100770008A0F9B1FDC01A05ABF4F12968C918230CA
:1007800008F00FC18E2F90E08032910508F00BC168
:10079000FC01E65BFF4F0C948507613019F4D89A91
:1007A00081E00895D89881E00895613019F4D99ACC
:1007B00081E00895D99881E00895613019F4DA9ABA
:1007C00081E00895DA9881E00895613019F4DB9AA8
:1007D00081E00895DB9881E00895613019F4DC9A96
:1007E00081E00895DC9881E00895613019F4DD9A84
:1007F00081E00895DD9881E00895613019F4DE9A72
:1008000081E00895DE9881E00895613019F4DF9A5F
:1008100081E00895DF9881E00895613019F4C09A6D
:1008200081E00895C09881E00895613019F4C19A7B
:1008300081E00895C19881E00895613019F4C29A69
:1008400081E00895C29881E00895613019F4C39A57
:1008500081E00895C39881E00895613019F4C49A45
:1008600081E00895C49881E00895613019F4C59A33
:1008700081E00895C59881E00895613019F4C69A21
:1008800081E00895C69881E00895613019F4C79A0F
:1008900081E00895C79881E00895613019F4A89A1D
:1008A00081E00895A89881E00895613019F4A99A2B
:1008B00081E00895A99881E00895613019F4AA9A19
:1008C00081E00895AA9881E00895613019F4AB9A07
:1008D00081E00895AB9881E00895613019F4AC9AF5
:1008E00081E00895AC9881E00895613019F4AD9AE3
:1008F00081E00895AD9881E00895613019F4AE9AD1
:1009000081E00895AE9881E00895613019F4AF9ABE
:1009100081E00895AF9881E00895613019F4909ACC
:1009200081E00895909881E00895613019F4919ADA
:1009300081E00895919881E00895613019F4929AC8
:1009400081E00895929881E00895613019F4939AB6
:1009500081E00895939881E00895613019F4949AA4
:1009600081E00895949881E00895613019F4959A92
:1009700081E00895959881E00895613019F4969A80
:1009800081E00895969881E00895613019F4979A6E
:1009900081E00895979881E0089580E0089580E0CF
:1009A000089580E0089581E0089590E0FC01EE0F45
:1009B000FF1FE80FF91FE05AFF4FE081E03208F017
:1009C000E4C0DC01AA0FBB1FA80FB91FA05ABF4F7C
:1009D00011962C91223008F0DAC0DC01AA0FBB1F5F
:1009E0008A0F9B1FDC01A05ABF4F12968C91823058
:1009F00008F0CFC08E2F90E08032910508F0CBC078
:100A0000FC01E659FF4F0C94850789B38170FB0107
:100A1000808381E0089589B38270FB01808381E047
:100A2000089589B38470FB01808381E0089589B3C0
:100A30008870FB01808381E0089589B38071FB0198
:100A4000808381E0089589B38072FB01808381E017
:100A5000089589B38074FB01808381E0089589B390
:100A60008078FB01808381E0089586B38170FB016B
:100A7000808381E0089586B38270FB01808381E0EA
:100A8000089586B38470FB01808381E0089586B366
:100A90008870FB01808381E0089586B38071FB013B
:100AA000808381E0089586B38072FB01808381E0BA
:100AB000089586B38074FB01808381E0089586B336
:100AC0008078FB01808381E0089583B38170FB010E
:100AD000808381E0089583B38270FB01808381E08D
:100AE000089583B38470FB01808381E0089583B30C
:100AF0008870FB01808381E0089583B38071FB01DE
:100B0000808381E0089583B38072FB01808381E05C
:100B1000089583B38074FB01808381E0089583B3DB
:100B20008078FB01808381E0089580B38170FB01B0
:100B3000808381E0089580B38270FB01808381E02F
:100B4000089580B38470FB01808381E0089580B3B1
:100B50008870FB01808381E0089580B38071FB0180
:100B6000808381E0089580B38072FB01808381E0FF
:100B7000089580B38074FB01808381E0089580B381
:100B80008078FB01808381E0089580E0089580E013
:100B9000089580E0089581E0089590E0FC01EE0F53
:100BA000FF1FE80FF91FE05AFF4FE081E03208F025
:100BB000E0C0DC01AA0FBB1FA80FB91FA05ABF4F8E
:100BC00011962C91223008F0D6C0DC01AA0FBB1F71
:100BD0008A0F9B1FDC01A05ABF4F12968C91823066
:100BE00008F0CBC08E2F90E08032910508F0C7C08E
:100BF000FC01E657FF4F0C9485079BB381E08927E2
:100C00008BBB81E008959BB382E089278BBB81E099
:100C100008959BB384E089278BBB81E008959BB343
:100C200088E089278BBB81E008959BB380E1892709
:100C30008BBB81E008959BB380E289278BBB81E069
:100C400008959BB384E089278BBB81E008958BB323
:100C500080588BBB81E0089598B381E0892788BBD9
:100C600081E0089598B382E0892788BB81E00895E8
:100C700098B384E0892788BB81E0089598B388E021
:100C8000892788BB81E0089598B380E1892788BBD4
:100C900081E0089598B380E2892788BB81E00895B8
:100CA00098B380E4892788BB81E0089588B3805891
:100CB00088BB81E0089595B381E0892785BB81E0F9
:100CC000089595B382E0892785BB81E0089595B3A7
:100CD00084E0892785BB81E0089595B388E0892762
:100CE00085BB81E0089595B380E1892785BB81E0CC
:100CF000089595B380E2892785BB81E0089595B377
:100D000080E4892785BB81E0089585B3805885BB41
:100D100081E0089592B381E0892782BB81E0089544
:100D200092B382E0892782BB81E0089592B384E088
:100D3000892782BB81E0089592B388E0892782BB2E
:100D400081E0089592B380E1892782BB81E0089514
:100D500092B380E2892782BB81E0089592B380E458
:100D6000892782BB81E0089582B3805882BB81E0ED
:100D7000089580E0089580E0089580E0089581E07E
:100D800008950E94C900813049F483E690E00E94F2
:100D90005E078DE090E00E9450070895811108C021
:100DA00088E690E00E945E078DE090E00E94500788
:100DB00008950E949D03813049F483E690E00E94EB
:100DC0005E078DE090E00E9450070895811108C0F1
:100DD00088E690E00E945E078DE090E00E94500758
:100DE00008950E94D504813049F483E690E00E9482
:100DF0005E078DE090E00E9450070895811108C0C1
:100E000088E690E00E945E078DE090E00E94500727
:100E100008950E94CD05813049F483E690E00E9458
:100E20005E078DE090E00E9450070895811108C090
:100E300088E690E00E945E078DE090E00E945007F7
:100E40000895CF93DF9300D0CDB7DEB70E94380767
:100E50000E94C10661E080E00E94D906BE016F5F7A
:100E60007F4F81E00E94F10680E00E940907FFCFDA
:100E700010BC83E389B988E18AB980B5846080BDFC
:100E800080B5826080BD80B58F7D80BD80B58F7E4E
:100E900080BD80B5877F80BD81E08093700008951C
:100EA000982F80917000882341F081E0809370003A
:100EB0005D9BFECF9CB9809170000895EF92FF92E8
:100EC0000F931F93CF93DF937C0180917000882351
:100ED000A9F081E080937000E7018FEFE80EF11C2C
:100EE0008E01899190E00E945007F801908199232A
:100EF00019F0CE15DF05A1F780917000DF91CF9139
:100F00001F910F91FF90EF900895EE0FFF1F059036
:0A0F1000F491E02D0994F894FFCF4E
:100F1A0020010050415353004661696C656400002A
:00000001FF
